:1000000045C0000053C0000051C000004FC00000B8
:100010004DC000004BC0000049C0000047C00000B8
:1000200045C0000043C0000041C000003FC00000C8
:100030003DC000003BC0000039C0000037C00000D8
:1000400035C0000033C0000031C000002FC00000E8
:100050002DC000002BC0000029C0000027C00000F8
:1000600025C0000023C0000021C000001FC0000008
:100070001DC000001BC0000019C0000017C0000018
:1000800015C0000013C0000011C0000011241FBEE5
:10009000CFEFD0E1DEBFCDBF21E0A0E0B1E001C0F5
:1000A0001D92AC31B207E1F702D08DC1A9CF04D1C6
:1000B00020D1FECF0F931F9380910801813099F1D9
:1000C00038F0823009F45AC0833009F481C0A8C0E6
:1000D0006AD18091040190910501A0910601B0912F
:1000E000070140910001509101016091020170915E
:1000F00003018C019D01041B150B260B370BB90165
:10010000A801483B5B406105710508F489C08093F4
:10011000000190930101A0930201B093030181E0DB
:10012000809308017DC043D1809104019091050125
:10013000A0910601B0910701409100015091010189
:1001400060910201709103018C019D01041B150B4C
:10015000260B370BB901A801483E534061057105D4
:1001600008F45EC08093000190930101A093020106
:10017000B093030182E08093080152C01CD18091AA
:10018000040190910501A0910601B09107014091F1
:1001900000015091010160910201709103018C01F5
:1001A0009D01041B150B260B370BB901A801483B19
:1001B0005B4061057105A0F18093000190930101FE
:1001C000A0930201B093030183E08093080128C04B
:1001D000F6D08091040190910501A0910601B091A3
:1001E000070140910001509101016091020170915D
:1001F00003018C019D01041B150B260B370BB90164
:10020000A801483E53406105710550F080930001FC
:1002100090930101A0930201B09303011092080191
:100220008FE39CE90197F1F700C000008091040181
:1002300090910501A0910601B09107010A96A11DB8
:10024000B11D8093040190930501A0930601B09322
:1002500007011F910F91089580910801813081F06D
:1002600028F08230B1F08330F1F008959CD08FE017
:1002700091E06DD08230F9F481E080930801089517
:1002800096D08FE091E063D08230A9F4809308018A
:10029000089591D08FE091E05AD0823061F483E0EC
:1002A0008093080108958BD08FE091E050D0823088
:1002B00011F410920801089510921501109208018E
:1002C00020E049E350E06AE370E086E191E02BD062
:1002D00021E049E350E06AE370E089E091E023D057
:1002E00022E049E350E06AE370E08FE091E01BC058
:1002F000089586E191E02BD0823011F4109215011F
:1003000089E091E024D0823019F481E080931501D6
:1003100080911501882319F0813019F00895CACE13
:1003200008959ACF0895FC017183608353834283BB
:10033000248381E08583FB01308181E090E002C06D
:10034000880F991F2A95E2F7832380830895FC0183
:10035000A281B3818C9121E030E0048002C0220FA1
:10036000331F0A94E2F7282359F48581813041F440
:10037000AFE3BCE91197F1F700C0000015820895C2
:10038000222369F0858181110CC08FE39CE90197DC
:10039000F1F700C0000081E0858382E0089580E0ED
:1003A000089580E0089581E180936200089581E2DC
:1003B0008093620008958AE08093620008958CE043
:0A03C000809362000895F894FFCFC7
:00000001FF
