S0150000747261666669635369676E616C2E73726563D2
S113000045C0000053C0000051C000004FC00000B4
S11300104DC000004BC0000049C0000047C00000B4
S113002045C0000043C0000041C000003FC00000C4
S11300303DC000003BC0000039C0000037C00000D4
S113004035C0000033C0000031C000002FC00000E4
S11300502DC000002BC0000029C0000027C00000F4
S113006025C0000023C0000021C000001FC0000004
S11300701DC000001BC0000019C0000017C0000014
S113008015C0000013C0000011C0000011241FBEE1
S1130090CFEFD0E1DEBFCDBF21E0A0E0B1E001C0F1
S11300A01D92A930B207E1F708D11DC1A9CF81E1A2
S11300B080936200089581E28093620008958AE04B
S11300C08093620008958CE08093620008950F93FA
S11300D01F9380910801813099F138F0823009F43E
S11300E05AC0833009F481C0A8C0E1DF80910401C3
S11300F090910501A0910601B09107014091000182
S11301005091010160910201709103018C019D01E4
S1130110041B150B260B370BB901A801483B5B40A8
S11301206105710508F489C0809300019093010171
S1130130A0930201B093030181E0809308017DC084
S1130140BADF8091040190910501A0910601B0915C
S113015007014091000150910101609102017091E9
S113016003018C019D01041B150B260B370BB901F0
S1130170A801483E53406105710508F45EC08093B0
S1130180000190930101A0930201B093030182E066
S11301908093080152C093DF80910401909105017E
S11301A0A0910601B0910701409100015091010115
S11301B060910201709103018C019D01041B150BD8
S11301C0260B370BB901A801483B5B40610571055B
S11301D0A0F18093000190930101A0930201B093D8
S11301E0030183E08093080128C06DDF809104013E
S11301F090910501A0910601B09107014091000181
S11302005091010160910201709103018C019D01E3
S1130210041B150B260B370BB901A801483E5340AC
S11302206105710550F08093000190930101A09342
S11302300201B0930301109208018FE39CE9019736
S1130240F1F700C000008091040190910501A09194
S11302500601B09107010A96A11DB11D8093040106
S113026090930501A0930601B09307011F910F918C
S1130270089580910801813069F028F0823089F076
S11302808330B1F0089513DFCA9916C081E08093DA
S11302900801089510DFCA990FC082E08093080115
S11302A008950DDFCA9908C083E08093080108957A
S11302B00ADFCA9B1092080108958AB3887F8ABB1B
S11302C0E1E6F0E080818F638083C0E0C89BC0E0FA
S11302D0C99BC1E0CC2319F0C13019F0F7CFF7DE88
S10D02E0F5CFC7DFF3CFF894FFCF8A
S9030000FC
